{"abi":[{"type":"constructor","inputs":[],"stateMutability":"nonpayable"},{"type":"function","name":"agentFailedCount","inputs":[{"name":"","type":"address","internalType":"address"}],"outputs":[{"name":"","type":"uint256","internalType":"uint256"}],"stateMutability":"view"},{"type":"function","name":"agentSwapCount","inputs":[{"name":"","type":"address","internalType":"address"}],"outputs":[{"name":"","type":"uint256","internalType":"uint256"}],"stateMutability":"view"},{"type":"function","name":"failedSwaps","inputs":[{"name":"","type":"uint256","internalType":"uint256"}],"outputs":[{"name":"agent","type":"address","internalType":"address"},{"name":"fromToken","type":"string","internalType":"string"},{"name":"toToken","type":"string","internalType":"string"},{"name":"fromAmount","type":"uint256","internalType":"uint256"},{"name":"reason","type":"string","internalType":"string"},{"name":"paymentNetwork","type":"string","internalType":"string"},{"name":"timestamp","type":"uint256","internalType":"uint256"}],"stateMutability":"view"},{"type":"function","name":"getRecentFailedSwaps","inputs":[{"name":"count","type":"uint256","internalType":"uint256"}],"outputs":[{"name":"","type":"tuple[]","internalType":"struct XFlowAnalytics.FailedSwapRecord[]","components":[{"name":"agent","type":"address","internalType":"address"},{"name":"fromToken","type":"string","internalType":"string"},{"name":"toToken","type":"string","internalType":"string"},{"name":"fromAmount","type":"uint256","internalType":"uint256"},{"name":"reason","type":"string","internalType":"string"},{"name":"paymentNetwork","type":"string","internalType":"string"},{"name":"timestamp","type":"uint256","internalType":"uint256"}]}],"stateMutability":"view"},{"type":"function","name":"getRecentSwaps","inputs":[{"name":"count","type":"uint256","internalType":"uint256"}],"outputs":[{"name":"","type":"tuple[]","internalType":"struct XFlowAnalytics.SwapRecord[]","components":[{"name":"agent","type":"address","internalType":"address"},{"name":"fromToken","type":"string","internalType":"string"},{"name":"toToken","type":"string","internalType":"string"},{"name":"fromAmount","type":"uint256","internalType":"uint256"},{"name":"toAmount","type":"uint256","internalType":"uint256"},{"name":"paymentNetwork","type":"string","internalType":"string"},{"name":"route","type":"string","internalType":"string"},{"name":"riskLevel","type":"uint8","internalType":"uint8"},{"name":"timestamp","type":"uint256","internalType":"uint256"}]}],"stateMutability":"view"},{"type":"function","name":"getSuccessRate","inputs":[],"outputs":[{"name":"numerator","type":"uint256","internalType":"uint256"},{"name":"denominator","type":"uint256","internalType":"uint256"}],"stateMutability":"view"},{"type":"function","name":"owner","inputs":[],"outputs":[{"name":"","type":"address","internalType":"address"}],"stateMutability":"view"},{"type":"function","name":"recordFailedSwap","inputs":[{"name":"agent","type":"address","internalType":"address"},{"name":"fromToken","type":"string","internalType":"string"},{"name":"toToken","type":"string","internalType":"string"},{"name":"fromAmount","type":"uint256","internalType":"uint256"},{"name":"reason","type":"string","internalType":"string"},{"name":"paymentNetwork","type":"string","internalType":"string"}],"outputs":[],"stateMutability":"nonpayable"},{"type":"function","name":"recordSwap","inputs":[{"name":"agent","type":"address","internalType":"address"},{"name":"fromToken","type":"string","internalType":"string"},{"name":"toToken","type":"string","internalType":"string"},{"name":"fromAmount","type":"uint256","internalType":"uint256"},{"name":"toAmount","type":"uint256","internalType":"uint256"},{"name":"paymentNetwork","type":"string","internalType":"string"},{"name":"route","type":"string","internalType":"string"},{"name":"riskLevel","type":"uint8","internalType":"uint8"}],"outputs":[],"stateMutability":"nonpayable"},{"type":"function","name":"swaps","inputs":[{"name":"","type":"uint256","internalType":"uint256"}],"outputs":[{"name":"agent","type":"address","internalType":"address"},{"name":"fromToken","type":"string","internalType":"string"},{"name":"toToken","type":"string","internalType":"string"},{"name":"fromAmount","type":"uint256","internalType":"uint256"},{"name":"toAmount","type":"uint256","internalType":"uint256"},{"name":"paymentNetwork","type":"string","internalType":"string"},{"name":"route","type":"string","internalType":"string"},{"name":"riskLevel","type":"uint8","internalType":"uint8"},{"name":"timestamp","type":"uint256","internalType":"uint256"}],"stateMutability":"view"},{"type":"function","name":"totalFailed","inputs":[],"outputs":[{"name":"","type":"uint256","internalType":"uint256"}],"stateMutability":"view"},{"type":"function","name":"totalSwaps","inputs":[],"outputs":[{"name":"","type":"uint256","internalType":"uint256"}],"stateMutability":"view"},{"type":"event","name":"SwapExecuted","inputs":[{"name":"agent","type":"address","indexed":true,"internalType":"address"},{"name":"fromToken","type":"string","indexed":false,"internalType":"string"},{"name":"toToken","type":"string","indexed":false,"internalType":"string"},{"name":"fromAmount","type":"uint256","indexed":false,"internalType":"uint256"},{"name":"toAmount","type":"uint256","indexed":false,"internalType":"uint256"},{"name":"paymentNetwork","type":"string","indexed":false,"internalType":"string"},{"name":"route","type":"string","indexed":false,"internalType":"string"},{"name":"riskLevel","type":"uint8","indexed":false,"internalType":"uint8"},{"name":"timestamp","type":"uint256","indexed":false,"internalType":"uint256"}],"anonymous":false},{"type":"event","name":"SwapFailed","inputs":[{"name":"agent","type":"address","indexed":true,"internalType":"address"},{"name":"fromToken","type":"string","indexed":false,"internalType":"string"},{"name":"toToken","type":"string","indexed":false,"internalType":"string"},{"name":"fromAmount","type":"uint256","indexed":false,"internalType":"uint256"},{"name":"reason","type":"string","indexed":false,"internalType":"string"},{"name":"paymentNetwork","type":"string","indexed":false,"internalType":"string"},{"name":"timestamp","type":"uint256","indexed":false,"internalType":"uint256"}],"anonymous":false}],"bytecode":{"object":"0x608060405234602257600e60a3565b60146026565b6120a26100af82396120a290f35b602c565b60405190565b5f80fd5b5f1b90565b90604460018060a01b03916030565b9181191691161790565b60018060a01b031690565b90565b606b6067606f92604e565b6059565b604e565b90565b607990605c565b90565b6083906072565b90565b90565b9060996095609f92607c565b6086565b82546035565b9055565b60ac3360066089565b56fe60806040526004361015610013575b610f84565b61001d5f356100dc565b806305785ad4146100d757806316f72a93146100d257806329e5de4d146100cd578063378a653c146100c857806356cf628a146100c357806379463ab3146100be5780637e4c1fb0146100b95780638da5cb5b146100b4578063a7d1d51f146100af578063b4a800ce146100aa578063f09c5829146100a55763fcebcd280361000e57610f4f565b610f01565b610d34565b610ce5565b610be5565b610b66565b6109c9565b61096d565b6107d1565b610484565b610366565b610132565b60e01c90565b60405190565b5f80fd5b5f80fd5b5f9103126100fa57565b6100ec565b90565b61010b906100ff565b9052565b91602061013092949361012960408201965f830190610102565b0190610102565b565b34610163576101423660046100f0565b61014a610fc5565b9061015f6101566100e2565b9283928361010f565b0390f35b6100e8565b5f80fd5b610175816100ff565b0361017c57565b5f80fd5b9050359061018d8261016c565b565b906020828203126101a8576101a5915f01610180565b90565b6100ec565b5190565b60209181520190565b60200190565b60018060a01b031690565b6101d4906101c0565b90565b6101e0906101cb565b9052565b5190565b60209181520190565b90825f9392825e0152565b601f801991011690565b61022561022e6020936102339361021c816101e4565b938480936101e8565b958691016101f1565b6101fc565b0190565b610240906100ff565b9052565b906102d19060c0806102c66102b461029061027e60e0870161026c5f8b01515f8a01906101d7565b60208a015188820360208a0152610206565b60408901518782036040890152610206565b6102a260608901516060880190610237565b60808801518682036080880152610206565b60a087015185820360a0870152610206565b940151910190610237565b90565b906102de91610244565b90565b60200190565b906102fb6102f4836101ad565b80926101b1565b908161030c602083028401946101ba565b925f915b83831061031f57505050505090565b9091929394602061034161033b838560019503875289516102d4565b976102e1565b9301930191939290610310565b6103639160208201915f8184039101526102e7565b90565b346103965761039261038161037c36600461018f565b61126f565b6103896100e2565b9182918261034e565b0390f35b6100e8565b6103a4816101cb565b036103ab57565b5f80fd5b905035906103bc8261039b565b565b906020828203126103d7576103d4915f016103af565b90565b6100ec565b90565b6103f36103ee6103f8926101c0565b6103dc565b6101c0565b90565b610404906103df565b90565b610410906103fb565b90565b9061041d90610407565b5f5260205260405f2090565b1c90565b90565b6104409060086104459302610429565b61042d565b90565b906104539154610430565b90565b61046c906104676003915f92610413565b610448565b90565b9190610482905f60208501940190610102565b565b346104b4576104b061049f61049a3660046103be565b610456565b6104a76100e2565b9182918261046f565b0390f35b6100e8565b634e487b7160e01b5f52603260045260245ffd5b5490565b5f5260205f2090565b6104e3816104cd565b8210156104fd576104f56007916104d1565b910201905f90565b6104b9565b5f1c90565b60018060a01b031690565b61051e61052391610502565b610507565b90565b6105309054610512565b90565b634e487b7160e01b5f52602260045260245ffd5b9060016002830492168015610567575b602083101461056257565b610533565b91607f1691610557565b5f5260205f2090565b905f929180549061059461058d83610547565b80946101e8565b916001811690815f146105eb57506001146105af575b505050565b6105bc9192939450610571565b915f925b8184106105d357505001905f80806105aa565b600181602092959395548486015201910192906105c0565b92949550505060ff19168252151560200201905f80806105aa565b906106109161057a565b90565b634e487b7160e01b5f52604160045260245ffd5b90610631906101fc565b810190811067ffffffffffffffff82111761064b57604052565b610613565b90610670610669926106606100e2565b93848092610606565b0383610627565b565b61067e61068391610502565b61042d565b90565b6106909054610672565b90565b60019061069f826104cd565b81101561070b576106af916104da565b506106bb5f8201610526565b916106c860018301610650565b916106d560028201610650565b916106e260038301610686565b916106ef60048201610650565b91610708600661070160058501610650565b9301610686565b90565b5f80fd5b610718906101cb565b9052565b60209181520190565b61074461074d6020936107529361073b816101e4565b9384809361071c565b958691016101f1565b6101fc565b0190565b9796949360c0946107ac6107a16107c7966107926107b9966107cf9c988f61078560e08201935f83019061070f565b6020818403910152610725565b908d6040818403910152610725565b9260608c0190610102565b89820360808b0152610725565b9087820360a0890152610725565b940190610102565b565b34610808576108046107ec6107e736600461018f565b610693565b936107fb9795979391936100e2565b97889788610756565b0390f35b6100e8565b5f80fd5b5f80fd5b5f80fd5b909182601f830112156108535781359167ffffffffffffffff831161084e57602001926001830284011161084957565b610815565b610811565b61080d565b60ff1690565b61086781610858565b0361086e57565b5f80fd5b9050359061087f8261085e565b565b6101008183031261096357610898825f83016103af565b92602082013567ffffffffffffffff811161095e57836108b9918401610819565b929093604082013567ffffffffffffffff811161095957816108dc918401610819565b9290936108ec8360608401610180565b926108fa8160808501610180565b9260a081013567ffffffffffffffff8111610954578261091b918301610819565b92909360c083013567ffffffffffffffff811161094f576109418361094c928601610819565b93909460e001610872565b90565b610168565b610168565b610168565b610168565b6100ec565b5f0190565b346109ab57610995610980366004610881565b9a999099989198979297969396959495611906565b61099d6100e2565b806109a781610968565b0390f35b6100e8565b6109c6906109c16002915f92610413565b610448565b90565b346109f9576109f56109e46109df3660046103be565b6109b0565b6109ec6100e2565b9182918261046f565b0390f35b6100e8565b5190565b60209181520190565b60200190565b610a1a90610858565b9052565b90610ad19061010080610ab4610aa2610a6c610a5a6101208701610a485f8b01515f8a01906101d7565b60208a015188820360208a0152610206565b60408901518782036040890152610206565b610a7e60608901516060880190610237565b610a9060808901516080880190610237565b60a088015186820360a0880152610206565b60c087015185820360c0870152610206565b94610ac760e082015160e0860190610a11565b0151910190610237565b90565b90610ade91610a1e565b90565b60200190565b90610afb610af4836109fe565b8092610a02565b9081610b0c60208302840194610a0b565b925f915b838310610b1f57505050505090565b90919293946020610b41610b3b83856001950387528951610ad4565b97610ae1565b9301930191939290610b10565b610b639160208201915f818403910152610ae7565b90565b34610b9657610b92610b81610b7c36600461018f565b611cac565b610b896100e2565b91829182610b4e565b0390f35b6100e8565b610bab906008610bb09302610429565b610507565b90565b90610bbe9154610b9b565b90565b610bcd60065f90610bb3565b90565b9190610be3905f6020850194019061070f565b565b34610c1557610bf53660046100f0565b610c11610c00610bc1565b610c086100e2565b91829182610bd0565b0390f35b6100e8565b919060c083820312610ce057610c32815f85016103af565b92602081013567ffffffffffffffff8111610cdb5782610c53918301610819565b929093604083013567ffffffffffffffff8111610cd65782610c76918501610819565b929093610c868260608301610180565b92608082013567ffffffffffffffff8111610cd15783610ca7918401610819565b92909360a082013567ffffffffffffffff8111610ccc57610cc89201610819565b9091565b610168565b610168565b610168565b610168565b6100ec565b34610d2057610d0a610cf8366004610c1a565b98979097969196959295949394611f14565b610d126100e2565b80610d1c81610968565b0390f35b6100e8565b610d3160045f90610448565b90565b34610d6457610d443660046100f0565b610d60610d4f610d25565b610d576100e2565b9182918261046f565b0390f35b6100e8565b5490565b5f5260205f2090565b610d7f81610d69565b821015610d9957610d91600991610d6d565b910201905f90565b6104b9565b60ff1690565b610db0610db591610502565b610d9e565b90565b610dc29054610da4565b90565b5f90610dd082610d69565b811015610e5657610de091610d76565b50610dec5f8201610526565b91610df960018301610650565b91610e0660028201610650565b91610e1360038301610686565b91610e2060048201610686565b91610e2d60058301610650565b91610e3a60068201610650565b91610e536008610e4c60078501610db8565b9301610686565b90565b5f80fd5b610e6390610858565b9052565b949361010096610ed2610ef896610ec8610ebd610eff9d9f9e9c9798610eae610edf98610eed9b8e610ea16101208201935f83019061070f565b6020818403910152610725565b908c6040818403910152610725565b9460608b0190610102565b6080890190610102565b86820360a0880152610725565b9084820360c0860152610725565b9660e0830190610e5a565b0190610102565b565b34610f3b57610f37610f1c610f1736600461018f565b610dc5565b95610f2e9997999591959492946100e2565b998a998a610e67565b0390f35b6100e8565b610f4c60055f90610448565b90565b34610f7f57610f5f3660046100f0565b610f7b610f6a610f40565b610f726100e2565b9182918261046f565b0390f35b6100e8565b5f80fd5b5f90565b634e487b7160e01b5f52601160045260245ffd5b610faf610fb5919392936100ff565b926100ff565b8201809211610fc057565b610f8c565b610fcd610f88565b50610fd6610f88565b50610ff4610fe46004610686565b610fee6005610686565b90610fa0565b610ffe6004610686565b91565b606090565b906110196110126100e2565b9283610627565b565b67ffffffffffffffff81116110335760208091020190565b610613565b9061104a6110458361101b565b611006565b918252565b61105960e0611006565b90565b5f90565b606090565b5f90565b61107161104f565b9060208080808080808861108361105c565b81520161108e611060565b815201611099611060565b8152016110a4611065565b8152016110af611060565b8152016110ba611060565b8152016110c5611065565b81525050565b6110d3611069565b90565b5f5b8281106110e457505050565b6020906110ef6110cb565b81840152016110d8565b9061111e61110683611038565b92602080611114869361101b565b92019103906110d6565b565b90565b61113761113261113c92611120565b6103dc565b6100ff565b90565b600161114b91016100ff565b90565b61115d611163919392936100ff565b926100ff565b820391821161116e57565b610f8c565b9061117d826101ad565b81101561118e576020809102010190565b6104b9565b9061119d906101cb565b9052565b52565b906111ae906100ff565b9052565b9061126161125860066111c361104f565b946111da6111d25f8301610526565b5f8801611193565b6111f26111e960018301610650565b602088016111a1565b61120a61120160028301610650565b604088016111a1565b61122261121960038301610686565b606088016111a4565b61123a61123160048301610650565b608088016111a1565b61125261124960058301610650565b60a088016111a1565b01610686565b60c084016111a4565b565b61126c906111b2565b90565b611277611001565b5061128260016104cd565b9080611296611290846100ff565b916100ff565b115f146113235750805b906112aa826110f9565b916112b45f611123565b5b806112c86112c2846100ff565b916100ff565b101561131d57611318906113116112f560016112ef6112e888889061114e565b8590610fa0565b906104da565b50866113018492611263565b61130b8383611173565b52611173565b515061113f565b6112b5565b50505090565b6112a0565b90565b611336610120611006565b90565b5f80fd5b67ffffffffffffffff811161135b576113576020916101fc565b0190565b610613565b90825f939282370152565b9092919261138061137b8261133d565b611006565b9381855260208501908284011161139c5761139a92611360565b565b611339565b6113ac91369161136b565b90565b906113b990610858565b9052565b5f5260205f2090565b5490565b6113d3816113c6565b8210156113ed576113e56009916113bd565b910201905f90565b6104b9565b634e487b7160e01b5f525f60045260245ffd5b61140f90516101cb565b90565b5f1b90565b9061142860018060a01b0391611412565b9181191691161790565b90565b9061144a61144561145192610407565b611432565b8254611417565b9055565b5190565b601f602091010490565b1b90565b9190600861148291029161147c5f1984611463565b92611463565b9181191691161790565b6114a061149b6114a5926100ff565b6103dc565b6100ff565b90565b90565b91906114c16114bc6114c99361148c565b6114a8565b908354611467565b9055565b6114df916114d9610f88565b916114ab565b565b5f5b8281106114ef57505050565b806114fe5f60019385016114cd565b016114e3565b9190601f8111611514575b505050565b818111611521575b61150f565b61153661153061155494610571565b91611459565b91602061154282611459565b911061155c575b8091019103906114e1565b5f808061151c565b505f611549565b90611573905f1990600802610429565b191690565b8161158291611563565b906002021790565b90611594816101e4565b9067ffffffffffffffff8211611654576115b8826115b28554610547565b85611504565b602090601f83116001146115ec579180916115db935f926115e0575b5050611578565b90555b565b90915001515f806115d4565b601f198316916115fb85610571565b925f5b81811061163c57509160029391856001969410611622575b505050020190556115de565b611632910151601f841690611563565b90555f8080611616565b919360206001819287870151815501950192016115fe565b610613565b906116639161158a565b565b61166f90516100ff565b90565b9061167e5f1991611412565b9181191691161790565b9061169d6116986116a49261148c565b6114a8565b8254611672565b9055565b6116b29051610858565b90565b906116c160ff91611412565b9181191691161790565b6116df6116da6116e492610858565b6103dc565b610858565b90565b90565b906116ff6116fa611706926116cb565b6116e7565b82546116b5565b9055565b906117e561010060086117eb9461172e5f82016117285f8801611405565b90611435565b6117476001820161174160208801611455565b90611659565b6117606002820161175a60408801611455565b90611659565b6117796003820161177360608801611665565b90611688565b6117926004820161178c60808801611665565b90611688565b6117ab600582016117a560a08801611455565b90611659565b6117c4600682016117be60c08801611455565b90611659565b6117dd600782016117d760e088016116a8565b906116ea565b019201611665565b90611688565b565b91906117fe576117fc9161170a565b565b6113f2565b9081549168010000000000000000831015611833578261182b916001611831950181556113ca565b906117ed565b565b610613565b611841906100ff565b5f19811461184f5760010190565b610f8c565b919061186e81611867816118739561071c565b8095611360565b6101fc565b0190565b9790966118d76118f2976119049d9f9e9c966118c28c6118cd9260e09f9b98996118b46118fd9f6118e49c6101008601918683035f880152611854565b926020818503910152611854565b9560408d0190610102565b60608b0190610102565b88830360808a0152611854565b9185830360a0870152611854565b9660c0830190610e5a565b0190610102565b565b84828585899f989d969b999e80989d969f8a90898d8f5f61192690611328565b998b99979890949192948d94979698429a61193f61132b565b9c5f8e019061194d91611193565b611956916113a1565b60208c0190611964916111a1565b61196d916113a1565b60408a019061197b916111a1565b6060890190611989916111a4565b6080880190611997916111a4565b6119a0916113a1565b60a08601906119ae916111a1565b6119b7916113a1565b60c08401906119c5916111a1565b60e08301906119d3916113af565b6101008201906119e2916111a4565b6119eb91611803565b6002816119f791610413565b611a0081610686565b611a0990611838565b611a1291611688565b611a1c6004610686565b611a2590611838565b611a30906004611688565b999697989a9594909192939442967fafa852c4c1ededd1a26397d085e7492b8f39360f52c81973a13397119e3a9aac9b611a6990610407565b9c611a726100e2565b9b8c9b611a7f9b8d611877565b0390a2565b606090565b67ffffffffffffffff8111611aa15760208091020190565b610613565b90611ab8611ab383611a89565b611006565b918252565b611ac8610120611006565b90565b5f90565b611ad7611abd565b90602080808080808080808a611aeb61105c565b815201611af6611060565b815201611b01611060565b815201611b0c611065565b815201611b17611065565b815201611b22611060565b815201611b2d611060565b815201611b38611acb565b815201611b43611065565b81525050565b611b51611acf565b90565b5f5b828110611b6257505050565b602090611b6d611b49565b8184015201611b56565b90611b9c611b8483611aa6565b92602080611b928693611a89565b9201910390611b54565b565b90611ba8826109fe565b811015611bb9576020809102010190565b6104b9565b90611c9e611c946008611bcf611abd565b94611be6611bde5f8301610526565b5f8801611193565b611bfe611bf560018301610650565b602088016111a1565b611c16611c0d60028301610650565b604088016111a1565b611c2e611c2560038301610686565b606088016111a4565b611c46611c3d60048301610686565b608088016111a4565b611c5e611c5560058301610650565b60a088016111a1565b611c76611c6d60068301610650565b60c088016111a1565b611c8e611c8560078301610db8565b60e088016113af565b01610686565b61010084016111a4565b565b611ca990611bbe565b90565b611cb4611a84565b50611cbe5f610d69565b9080611cd2611ccc846100ff565b916100ff565b115f14611d5e5750805b90611ce682611b77565b91611cf05f611123565b5b80611d04611cfe846100ff565b916100ff565b1015611d5857611d5390611d4c611d305f611d2a611d2388889061114e565b8590610fa0565b90610d76565b5086611d3c8492611ca0565b611d468383611b9e565b52611b9e565b515061113f565b611cf1565b50505090565b611cdc565b90565b611d7060e0611006565b90565b5f5260205f2090565b5490565b611d8981611d7c565b821015611da357611d9b600791611d73565b910201905f90565b6104b9565b90611e5060c06006611e5694611dcb5f8201611dc55f8801611405565b90611435565b611de460018201611dde60208801611455565b90611659565b611dfd60028201611df760408801611455565b90611659565b611e1660038201611e1060608801611665565b90611688565b611e2f60048201611e2960808801611455565b90611659565b611e4860058201611e4260a08801611455565b90611659565b019201611665565b90611688565b565b9190611e6957611e6791611da8565b565b6113f2565b9081549168010000000000000000831015611e9e5782611e96916001611e9c95018155611d80565b90611e58565b565b610613565b9a99979495611eef611f0a976040611ee78f9697611f129e99611ed960a09e98611efc9b60c08c01918c5f818503910152611854565b9189830360208b0152611854565b950190610102565b8b830360608d0152611854565b9188830360808a0152611854565b940190610102565b565b9891949897909796929593966001611f2b90611d63565b818a8c89918b8d92908b918b918a958c954298611f46611d66565b9a5f8c0190611f5491611193565b611f5d916113a1565b60208a0190611f6b916111a1565b611f74916113a1565b6040880190611f82916111a1565b6060870190611f90916111a4565b611f99916113a1565b6080850190611fa7916111a1565b611fb0916113a1565b60a0830190611fbe916111a1565b60c0820190611fcc916111a4565b611fd591611e6e565b600381611fe191610413565b611fea81610686565b611ff390611838565b611ffc91611688565b6120066005610686565b61200f90611838565b61201a906005611688565b9794959698939290919242947ff5d9f1161f24e969563279b4327f51061d982ee691450b3edfe5bc82ee123b9a9961205190610407565b9a61205a6100e2565b998a99612067998b611ea3565b0390a256fea264697066735822122024235d1c65c7aec992323bafa2035b2b46f33f284360ec62a40ff8fac3bb91cd64736f6c63430008210033","linkReferences":{}},"methodIdentifiers":{"agentFailedCount(address)":"29e5de4d","agentSwapCount(address)":"79463ab3","failedSwaps(uint256)":"378a653c","getRecentFailedSwaps(uint256)":"16f72a93","getRecentSwaps(uint256)":"7e4c1fb0","getSuccessRate()":"05785ad4","owner()":"8da5cb5b","recordFailedSwap(address,string,string,uint256,string,string)":"a7d1d51f","recordSwap(address,string,string,uint256,uint256,string,string,uint8)":"56cf628a","swaps(uint256)":"f09c5829","totalFailed()":"fcebcd28","totalSwaps()":"b4a800ce"},"id":0}