{"abi":[{"type":"constructor","inputs":[],"stateMutability":"nonpayable"},{"type":"function","name":"agentSwapCount","inputs":[{"name":"","type":"address","internalType":"address"}],"outputs":[{"name":"","type":"uint256","internalType":"uint256"}],"stateMutability":"view"},{"type":"function","name":"getRecentSwaps","inputs":[{"name":"count","type":"uint256","internalType":"uint256"}],"outputs":[{"name":"","type":"tuple[]","internalType":"struct XFlowAnalytics.SwapRecord[]","components":[{"name":"agent","type":"address","internalType":"address"},{"name":"fromToken","type":"string","internalType":"string"},{"name":"toToken","type":"string","internalType":"string"},{"name":"fromAmount","type":"uint256","internalType":"uint256"},{"name":"toAmount","type":"uint256","internalType":"uint256"},{"name":"paymentNetwork","type":"string","internalType":"string"},{"name":"route","type":"string","internalType":"string"},{"name":"riskLevel","type":"uint8","internalType":"uint8"},{"name":"timestamp","type":"uint256","internalType":"uint256"}]}],"stateMutability":"view"},{"type":"function","name":"getSwap","inputs":[{"name":"index","type":"uint256","internalType":"uint256"}],"outputs":[{"name":"","type":"tuple","internalType":"struct XFlowAnalytics.SwapRecord","components":[{"name":"agent","type":"address","internalType":"address"},{"name":"fromToken","type":"string","internalType":"string"},{"name":"toToken","type":"string","internalType":"string"},{"name":"fromAmount","type":"uint256","internalType":"uint256"},{"name":"toAmount","type":"uint256","internalType":"uint256"},{"name":"paymentNetwork","type":"string","internalType":"string"},{"name":"route","type":"string","internalType":"string"},{"name":"riskLevel","type":"uint8","internalType":"uint8"},{"name":"timestamp","type":"uint256","internalType":"uint256"}]}],"stateMutability":"view"},{"type":"function","name":"owner","inputs":[],"outputs":[{"name":"","type":"address","internalType":"address"}],"stateMutability":"view"},{"type":"function","name":"recordSwap","inputs":[{"name":"agent","type":"address","internalType":"address"},{"name":"fromToken","type":"string","internalType":"string"},{"name":"toToken","type":"string","internalType":"string"},{"name":"fromAmount","type":"uint256","internalType":"uint256"},{"name":"toAmount","type":"uint256","internalType":"uint256"},{"name":"paymentNetwork","type":"string","internalType":"string"},{"name":"route","type":"string","internalType":"string"},{"name":"riskLevel","type":"uint8","internalType":"uint8"}],"outputs":[],"stateMutability":"nonpayable"},{"type":"function","name":"swaps","inputs":[{"name":"","type":"uint256","internalType":"uint256"}],"outputs":[{"name":"agent","type":"address","internalType":"address"},{"name":"fromToken","type":"string","internalType":"string"},{"name":"toToken","type":"string","internalType":"string"},{"name":"fromAmount","type":"uint256","internalType":"uint256"},{"name":"toAmount","type":"uint256","internalType":"uint256"},{"name":"paymentNetwork","type":"string","internalType":"string"},{"name":"route","type":"string","internalType":"string"},{"name":"riskLevel","type":"uint8","internalType":"uint8"},{"name":"timestamp","type":"uint256","internalType":"uint256"}],"stateMutability":"view"},{"type":"function","name":"totalSwaps","inputs":[],"outputs":[{"name":"","type":"uint256","internalType":"uint256"}],"stateMutability":"view"},{"type":"event","name":"SwapExecuted","inputs":[{"name":"agent","type":"address","indexed":true,"internalType":"address"},{"name":"fromToken","type":"string","indexed":false,"internalType":"string"},{"name":"toToken","type":"string","indexed":false,"internalType":"string"},{"name":"fromAmount","type":"uint256","indexed":false,"internalType":"uint256"},{"name":"toAmount","type":"uint256","indexed":false,"internalType":"uint256"},{"name":"paymentNetwork","type":"string","indexed":false,"internalType":"string"},{"name":"route","type":"string","indexed":false,"internalType":"string"},{"name":"riskLevel","type":"uint8","indexed":false,"internalType":"uint8"},{"name":"timestamp","type":"uint256","indexed":false,"internalType":"uint256"}],"anonymous":false}],"bytecode":{"object":"0x608060405234602257600e60a3565b60146026565b6116df6100af82396116df90f35b602c565b60405190565b5f80fd5b5f1b90565b90604460018060a01b03916030565b9181191691161790565b60018060a01b031690565b90565b606b6067606f92604e565b6059565b604e565b90565b607990605c565b90565b6083906072565b90565b90565b9060996095609f92607c565b6086565b82546035565b9055565b60ac3360036089565b56fe60806040526004361015610013575b610b6f565b61001d5f3561008c565b80634a0d89ba1461008757806356cf628a1461008257806379463ab31461007d5780637e4c1fb0146100785780638da5cb5b14610073578063b4a800ce1461006e5763f09c58290361000e57610b30565b61078f565b61074b565b6106a5565b610515565b6103ff565b61024d565b60e01c90565b60405190565b5f80fd5b5f80fd5b5f80fd5b90565b6100b0816100a4565b036100b757565b5f80fd5b905035906100c8826100a7565b565b906020828203126100e3576100e0915f016100bb565b90565b61009c565b60018060a01b031690565b6100fc906100e8565b90565b610108906100f3565b9052565b5190565b60209181520190565b90825f9392825e0152565b601f801991011690565b61014d61015660209361015b936101448161010c565b93848093610110565b95869101610119565b610124565b0190565b610168906100a4565b9052565b60ff1690565b61017b9061016c565b9052565b9061023290610100806102156102036101cd6101bb61012087016101a95f8b01515f8a01906100ff565b60208a015188820360208a015261012e565b6040890151878203604089015261012e565b6101df6060890151606088019061015f565b6101f16080890151608088019061015f565b60a088015186820360a088015261012e565b60c087015185820360c087015261012e565b9461022860e082015160e0860190610172565b015191019061015f565b90565b61024a9160208201915f81840391015261017f565b90565b3461027d576102796102686102633660046100ca565b610d47565b610270610092565b91829182610235565b0390f35b610098565b61028b816100f3565b0361029257565b5f80fd5b905035906102a382610282565b565b5f80fd5b5f80fd5b5f80fd5b909182601f830112156102eb5781359167ffffffffffffffff83116102e65760200192600183028401116102e157565b6102ad565b6102a9565b6102a5565b6102f98161016c565b0361030057565b5f80fd5b90503590610311826102f0565b565b610100818303126103f55761032a825f8301610296565b92602082013567ffffffffffffffff81116103f0578361034b9184016102b1565b929093604082013567ffffffffffffffff81116103eb578161036e9184016102b1565b92909361037e83606084016100bb565b9261038c81608085016100bb565b9260a081013567ffffffffffffffff81116103e657826103ad9183016102b1565b92909360c083013567ffffffffffffffff81116103e1576103d3836103de9286016102b1565b93909460e001610304565b90565b6100a0565b6100a0565b6100a0565b6100a0565b61009c565b5f0190565b3461043d57610427610412366004610313565b9a99909998919897929796939695949561134e565b61042f610092565b80610439816103fa565b0390f35b610098565b9060208282031261045b57610458915f01610296565b90565b61009c565b90565b61047761047261047c926100e8565b610460565b6100e8565b90565b61048890610463565b90565b6104949061047f565b90565b906104a19061048b565b5f5260205260405f2090565b1c90565b90565b6104c49060086104c993026104ad565b6104b1565b90565b906104d791546104b4565b90565b6104f0906104eb6001915f92610497565b6104cc565b90565b6104fc906100a4565b9052565b9190610513905f602085019401906104f3565b565b346105455761054161053061052b366004610442565b6104da565b610538610092565b91829182610500565b0390f35b610098565b5190565b60209181520190565b60200190565b9061061090610100806105f36105e16105ab61059961012087016105875f8b01515f8a01906100ff565b60208a015188820360208a015261012e565b6040890151878203604089015261012e565b6105bd6060890151606088019061015f565b6105cf6080890151608088019061015f565b60a088015186820360a088015261012e565b60c087015185820360c087015261012e565b9461060660e082015160e0860190610172565b015191019061015f565b90565b9061061d9161055d565b90565b60200190565b9061063a6106338361054a565b809261054e565b908161064b60208302840194610557565b925f915b83831061065e57505050505090565b9091929394602061068061067a83856001950387528951610613565b97610620565b930193019193929061064f565b6106a29160208201915f818403910152610626565b90565b346106d5576106d16106c06106bb3660046100ca565b6115f2565b6106c8610092565b9182918261068d565b0390f35b610098565b5f9103126106e457565b61009c565b60018060a01b031690565b61070490600861070993026104ad565b6106e9565b90565b9061071791546106f4565b90565b61072660035f9061070c565b90565b610732906100f3565b9052565b9190610749905f60208501940190610729565b565b3461077b5761075b3660046106da565b61077761076661071a565b61076e610092565b91829182610736565b0390f35b610098565b61078c60025f906104cc565b90565b346107bf5761079f3660046106da565b6107bb6107aa610780565b6107b2610092565b91829182610500565b0390f35b610098565b634e487b7160e01b5f52603260045260245ffd5b5490565b5f5260205f2090565b6107ee816107d8565b821015610808576108006009916107dc565b910201905f90565b6107c4565b5f1c90565b61081e6108239161080d565b6106e9565b90565b6108309054610812565b90565b634e487b7160e01b5f52602260045260245ffd5b9060016002830492168015610867575b602083101461086257565b610833565b91607f1691610857565b5f5260205f2090565b905f929180549061089461088d83610847565b8094610110565b916001811690815f146108eb57506001146108af575b505050565b6108bc9192939450610871565b915f925b8184106108d357505001905f80806108aa565b600181602092959395548486015201910192906108c0565b92949550505060ff19168252151560200201905f80806108aa565b906109109161087a565b90565b634e487b7160e01b5f52604160045260245ffd5b9061093190610124565b810190811067ffffffffffffffff82111761094b57604052565b610913565b9061097061096992610960610092565b93848092610906565b0383610927565b565b61097e6109839161080d565b6104b1565b90565b6109909054610972565b90565b60ff1690565b6109a56109aa9161080d565b610993565b90565b6109b79054610999565b90565b5f906109c5826107d8565b811015610a4b576109d5916107e5565b506109e15f8201610826565b916109ee60018301610950565b916109fb60028201610950565b91610a0860038301610986565b91610a1560048201610986565b91610a2260058301610950565b91610a2f60068201610950565b91610a486008610a41600785016109ad565b9301610986565b90565b5f80fd5b60209181520190565b610a77610a80602093610a8593610a6e8161010c565b93848093610a4f565b95869101610119565b610124565b0190565b610a929061016c565b9052565b949361010096610b01610b2796610af7610aec610b2e9d9f9e9c9798610add610b0e98610b1c9b8e610ad06101208201935f830190610729565b6020818403910152610a58565b908c6040818403910152610a58565b9460608b01906104f3565b60808901906104f3565b86820360a0880152610a58565b9084820360c0860152610a58565b9660e0830190610a89565b01906104f3565b565b34610b6a57610b66610b4b610b463660046100ca565b6109ba565b95610b5d999799959195949294610092565b998a998a610a96565b0390f35b610098565b5f80fd5b90610b86610b7f610092565b9283610927565b565b610b93610120610b73565b90565b5f90565b606090565b5f90565b5f90565b610baf610b88565b90602080808080808080808a610bc3610b96565b815201610bce610b9a565b815201610bd9610b9a565b815201610be4610b9f565b815201610bef610b9f565b815201610bfa610b9a565b815201610c05610b9a565b815201610c10610ba3565b815201610c1b610b9f565b81525050565b610c29610ba7565b90565b90610c36906100f3565b9052565b52565b90610c47906100a4565b9052565b90610c559061016c565b9052565b90610d39610d2f6008610c6a610b88565b94610c81610c795f8301610826565b5f8801610c2c565b610c99610c9060018301610950565b60208801610c3a565b610cb1610ca860028301610950565b60408801610c3a565b610cc9610cc060038301610986565b60608801610c3d565b610ce1610cd860048301610986565b60808801610c3d565b610cf9610cf060058301610950565b60a08801610c3a565b610d11610d0860068301610950565b60c08801610c3a565b610d29610d20600783016109ad565b60e08801610c4b565b01610986565b6101008401610c3d565b565b610d4490610c59565b90565b610d5d610d6391610d56610c21565b505f6107e5565b50610d3b565b90565b610d71610120610b73565b90565b5f80fd5b67ffffffffffffffff8111610d9657610d92602091610124565b0190565b610913565b90825f939282370152565b90929192610dbb610db682610d78565b610b73565b93818552602085019082840111610dd757610dd592610d9b565b565b610d74565b610de7913691610da6565b90565b90565b5f5260205f2090565b5490565b610e0381610df6565b821015610e1d57610e15600991610ded565b910201905f90565b6107c4565b634e487b7160e01b5f525f60045260245ffd5b610e3f90516100f3565b90565b5f1b90565b90610e5860018060a01b0391610e42565b9181191691161790565b90565b90610e7a610e75610e819261048b565b610e62565b8254610e47565b9055565b5190565b601f602091010490565b1b90565b91906008610eb2910291610eac5f1984610e93565b92610e93565b9181191691161790565b610ed0610ecb610ed5926100a4565b610460565b6100a4565b90565b90565b9190610ef1610eec610ef993610ebc565b610ed8565b908354610e97565b9055565b5f90565b610f1391610f0d610efd565b91610edb565b565b5f5b828110610f2357505050565b80610f325f6001938501610f01565b01610f17565b9190601f8111610f48575b505050565b818111610f55575b610f43565b610f6a610f64610f8894610871565b91610e89565b916020610f7682610e89565b9110610f90575b809101910390610f15565b5f8080610f50565b505f610f7d565b90610fa7905f19906008026104ad565b191690565b81610fb691610f97565b906002021790565b90610fc88161010c565b9067ffffffffffffffff821161108857610fec82610fe68554610847565b85610f38565b602090601f83116001146110205791809161100f935f92611014575b5050610fac565b90555b565b90915001515f80611008565b601f1983169161102f85610871565b925f5b81811061107057509160029391856001969410611056575b50505002019055611012565b611066910151601f841690610f97565b90555f808061104a565b91936020600181928787015181550195019201611032565b610913565b9061109791610fbe565b565b6110a390516100a4565b90565b906110b25f1991610e42565b9181191691161790565b906110d16110cc6110d892610ebc565b610ed8565b82546110a6565b9055565b6110e6905161016c565b90565b906110f560ff91610e42565b9181191691161790565b61111361110e6111189261016c565b610460565b61016c565b90565b90565b9061113361112e61113a926110ff565b61111b565b82546110e9565b9055565b90611219610100600861121f946111625f820161115c5f8801610e35565b90610e65565b61117b6001820161117560208801610e85565b9061108d565b6111946002820161118e60408801610e85565b9061108d565b6111ad600382016111a760608801611099565b906110bc565b6111c6600482016111c060808801611099565b906110bc565b6111df600582016111d960a08801610e85565b9061108d565b6111f8600682016111f260c08801610e85565b9061108d565b6112116007820161120b60e088016110dc565b9061111e565b019201611099565b906110bc565b565b9190611232576112309161113e565b565b610e22565b9081549168010000000000000000831015611267578261125f91600161126595018155610dfa565b90611221565b565b610913565b634e487b7160e01b5f52601160045260245ffd5b611289906100a4565b5f1981146112975760010190565b61126c565b91906112b6816112af816112bb95610a4f565b8095610d9b565b610124565b0190565b97909661131f61133a9761134c9d9f9e9c9661130a8c6113159260e09f9b98996112fc6113459f61132c9c6101008601918683035f88015261129c565b92602081850391015261129c565b9560408d01906104f3565b60608b01906104f3565b88830360808a015261129c565b9185830360a087015261129c565b9660c0830190610a89565b01906104f3565b565b8184848d899f959e979c95899e979c9a99819a8c8e8998969793929091938b938d979698429a61137c610d66565b9c5f8e019061138a91610c2c565b61139391610ddc565b60208c01906113a191610c3a565b6113aa91610ddc565b60408a01906113b891610c3a565b60608901906113c691610c3d565b60808801906113d491610c3d565b6113dd91610ddc565b60a08601906113eb91610c3a565b6113f491610ddc565b60c084019061140291610c3a565b60e083019061141091610c4b565b61010082019061141f91610c3d565b5f61142990610dea565b9061143391611237565b60018161143f91610497565b61144881610986565b61145190611280565b61145a916110bc565b6114646002610986565b61146d90611280565b6114789060026110bc565b999697989a9594909192939442967fafa852c4c1ededd1a26397d085e7492b8f39360f52c81973a13397119e3a9aac9b6114b19061048b565b9c6114ba610092565b9b8c9b6114c79b8d6112bf565b0390a2565b606090565b67ffffffffffffffff81116114e95760208091020190565b610913565b906115006114fb836114d1565b610b73565b918252565b61150d610ba7565b90565b5f5b82811061151e57505050565b602090611529611505565b8184015201611512565b90611558611540836114ee565b9260208061154e86936114d1565b9201910390611510565b565b90565b61157161156c6115769261155a565b610460565b6100a4565b90565b600161158591016100a4565b90565b61159761159d919392936100a4565b926100a4565b82039182116115a857565b61126c565b6115bc6115c2919392936100a4565b926100a4565b82018092116115cd57565b61126c565b906115dc8261054a565b8110156115ed576020809102010190565b6107c4565b6115fa6114cc565b506116045f6107d8565b9080611618611612846100a4565b916100a4565b115f146116a45750805b9061162c82611533565b916116365f61155d565b5b8061164a611644846100a4565b916100a4565b101561169e57611699906116926116765f611670611669888890611588565b85906115ad565b906107e5565b50866116828492610d3b565b61168c83836115d2565b526115d2565b5150611579565b611637565b50505090565b61162256fea2646970667358221220e28f66b9b67705fdae37a243edae1b888a5b607d79872bf433755f2aa1d7264c64736f6c63430008210033","linkReferences":{}},"methodIdentifiers":{"agentSwapCount(address)":"79463ab3","getRecentSwaps(uint256)":"7e4c1fb0","getSwap(uint256)":"4a0d89ba","owner()":"8da5cb5b","recordSwap(address,string,string,uint256,uint256,string,string,uint8)":"56cf628a","swaps(uint256)":"f09c5829","totalSwaps()":"b4a800ce"},"id":0}